{
  "contractName": "ESPMEscrow",
  "abi": [
    {
      "inputs": [
        {
          "name": "ESPM20Addr",
          "type": "address"
        },
        {
          "name": "ESPM20RewardAddr",
          "type": "address"
        },
        {
          "name": "ESPM721Addr",
          "type": "address"
        },
        {
          "name": "_tokenId",
          "type": "uint256"
        },
        {
          "name": "_tokenPrice",
          "type": "uint256"
        }
      ],
      "payable": false,
      "stateMutability": "nonpayable",
      "type": "constructor"
    },
    {
      "constant": false,
      "inputs": [],
      "name": "check721Approved",
      "outputs": [],
      "payable": false,
      "stateMutability": "nonpayable",
      "type": "function"
    },
    {
      "constant": false,
      "inputs": [],
      "name": "check20Approved",
      "outputs": [],
      "payable": false,
      "stateMutability": "nonpayable",
      "type": "function"
    },
    {
      "constant": false,
      "inputs": [],
      "name": "settle",
      "outputs": [],
      "payable": false,
      "stateMutability": "nonpayable",
      "type": "function"
    },
    {
      "constant": false,
      "inputs": [],
      "name": "cancel",
      "outputs": [],
      "payable": false,
      "stateMutability": "nonpayable",
      "type": "function"
    },
    {
      "constant": true,
      "inputs": [],
      "name": "getState",
      "outputs": [
        {
          "name": "",
          "type": "uint256"
        }
      ],
      "payable": false,
      "stateMutability": "view",
      "type": "function"
    }
  ],
  "bytecode": "0x60806040526000600560146101000a81548160ff0219169083151502179055506000600860146101000a81548160ff02191690831515021790555034801561004657600080fd5b5060405160a080611d108339810180604052810190808051906020019092919080519060200190929190805190602001909291908051906020019092919080519060200190929190505050846000806101000a81548173ffffffffffffffffffffffffffffffffffffffff021916908373ffffffffffffffffffffffffffffffffffffffff16021790555083600160006101000a81548173ffffffffffffffffffffffffffffffffffffffff021916908373ffffffffffffffffffffffffffffffffffffffff16021790555082600260006101000a81548173ffffffffffffffffffffffffffffffffffffffff021916908373ffffffffffffffffffffffffffffffffffffffff16021790555081600381905550600260009054906101000a900473ffffffffffffffffffffffffffffffffffffffff1673ffffffffffffffffffffffffffffffffffffffff16636352211e836040518263ffffffff167c010000000000000000000000000000000000000000000000000000000002815260040180828152602001915050602060405180830381600087803b1580156101eb57600080fd5b505af11580156101ff573d6000803e3d6000fd5b505050506040513d602081101561021557600080fd5b8101908080519060200190929190505050600560006101000a81548173ffffffffffffffffffffffffffffffffffffffff021916908373ffffffffffffffffffffffffffffffffffffffff1602179055503373ffffffffffffffffffffffffffffffffffffffff16600560009054906101000a900473ffffffffffffffffffffffffffffffffffffffff1673ffffffffffffffffffffffffffffffffffffffff16141515610351576040517f08c379a00000000000000000000000000000000000000000000000000000000081526004018080602001828103825260278152602001807f5468652073656c6c6572206973206e6f742074686520636f6e7472616374206381526020017f726561746f722e0000000000000000000000000000000000000000000000000081525060400191505060405180910390fd5b806004819055506000600860156101000a81548160ff0219169083600481111561037757fe5b02179055505050505050611980806103906000396000f30060806040526004361061006d576000357c0100000000000000000000000000000000000000000000000000000000900463ffffffff16806311da60b4146100725780631865c57d14610089578063996bcf4e146100b4578063a81cd128146100cb578063ea8a1af0146100e2575b600080fd5b34801561007e57600080fd5b506100876100f9565b005b34801561009557600080fd5b5061009e6106b0565b6040518082815260200191505060405180910390f35b3480156100c057600080fd5b506100c96106d2565b005b3480156100d757600080fd5b506100e0610d4c565b005b3480156100ee57600080fd5b506100f7611211565b005b6002600481111561010657fe5b600860159054906101000a900460ff16600481111561012157fe5b1415156101bc576040517f08c379a00000000000000000000000000000000000000000000000000000000081526004018080602001828103825260278152602001807f54686520636f6e7472616374206973206e6f7420696e2074686520526561647981526020017f2073746174652e0000000000000000000000000000000000000000000000000081525060400191505060405180910390fd5b600560009054906101000a900473ffffffffffffffffffffffffffffffffffffffff1673ffffffffffffffffffffffffffffffffffffffff163373ffffffffffffffffffffffffffffffffffffffff1614801561022c575060001515600560149054906101000a900460ff161515145b1561024d576001600560146101000a81548160ff0219169083151502179055505b600860009054906101000a900473ffffffffffffffffffffffffffffffffffffffff1673ffffffffffffffffffffffffffffffffffffffff163373ffffffffffffffffffffffffffffffffffffffff161480156102bd575060001515600860149054906101000a900460ff161515145b156102de576001600860146101000a81548160ff0219169083151502179055505b600560149054906101000a900460ff1680156103065750600860149054906101000a900460ff165b156106ae576000809054906101000a900473ffffffffffffffffffffffffffffffffffffffff1673ffffffffffffffffffffffffffffffffffffffff1663a9059cbb600560009054906101000a900473ffffffffffffffffffffffffffffffffffffffff166006546040518363ffffffff167c0100000000000000000000000000000000000000000000000000000000028152600401808373ffffffffffffffffffffffffffffffffffffffff1673ffffffffffffffffffffffffffffffffffffffff16815260200182815260200192505050602060405180830381600087803b1580156103f357600080fd5b505af1158015610407573d6000803e3d6000fd5b505050506040513d602081101561041d57600080fd5b810190808051906020019092919050505050600160009054906101000a900473ffffffffffffffffffffffffffffffffffffffff1673ffffffffffffffffffffffffffffffffffffffff1663a9059cbb600560009054906101000a900473ffffffffffffffffffffffffffffffffffffffff166007546040518363ffffffff167c0100000000000000000000000000000000000000000000000000000000028152600401808373ffffffffffffffffffffffffffffffffffffffff1673ffffffffffffffffffffffffffffffffffffffff16815260200182815260200192505050602060405180830381600087803b15801561051857600080fd5b505af115801561052c573d6000803e3d6000fd5b505050506040513d602081101561054257600080fd5b810190808051906020019092919050505050600260009054906101000a900473ffffffffffffffffffffffffffffffffffffffff1673ffffffffffffffffffffffffffffffffffffffff166323b872dd30600860009054906101000a900473ffffffffffffffffffffffffffffffffffffffff166003546040518463ffffffff167c0100000000000000000000000000000000000000000000000000000000028152600401808473ffffffffffffffffffffffffffffffffffffffff1673ffffffffffffffffffffffffffffffffffffffff1681526020018373ffffffffffffffffffffffffffffffffffffffff1673ffffffffffffffffffffffffffffffffffffffff1681526020018281526020019350505050600060405180830381600087803b15801561067157600080fd5b505af1158015610685573d6000803e3d6000fd5b505050506003600860156101000a81548160ff021916908360048111156106a857fe5b02179055505b565b6000600860159054906101000a900460ff1660048111156106cd57fe5b905090565b600160048111156106df57fe5b600860159054906101000a900460ff1660048111156106fa57fe5b141515610795576040517f08c379a000000000000000000000000000000000000000000000000000000000815260040180806020018281038252602d8152602001807f54686520636f6e7472616374206973206e6f7420696e2074686520417070726f81526020017f7665643732312073746174652e0000000000000000000000000000000000000081525060400191505060405180910390fd5b6000809054906101000a900473ffffffffffffffffffffffffffffffffffffffff1673ffffffffffffffffffffffffffffffffffffffff1663dd62ed3e33306040518363ffffffff167c0100000000000000000000000000000000000000000000000000000000028152600401808373ffffffffffffffffffffffffffffffffffffffff1673ffffffffffffffffffffffffffffffffffffffff1681526020018273ffffffffffffffffffffffffffffffffffffffff1673ffffffffffffffffffffffffffffffffffffffff16815260200192505050602060405180830381600087803b15801561088557600080fd5b505af1158015610899573d6000803e3d6000fd5b505050506040513d60208110156108af57600080fd5b8101908080519060200190929190505050600681905550600160009054906101000a900473ffffffffffffffffffffffffffffffffffffffff1673ffffffffffffffffffffffffffffffffffffffff1663dd62ed3e33306040518363ffffffff167c0100000000000000000000000000000000000000000000000000000000028152600401808373ffffffffffffffffffffffffffffffffffffffff1673ffffffffffffffffffffffffffffffffffffffff1681526020018273ffffffffffffffffffffffffffffffffffffffff1673ffffffffffffffffffffffffffffffffffffffff16815260200192505050602060405180830381600087803b1580156109b757600080fd5b505af11580156109cb573d6000803e3d6000fd5b505050506040513d60208110156109e157600080fd5b81019080805190602001909291905050506007819055506004546007546006540110151515610a78576040517f08c379a000000000000000000000000000000000000000000000000000000000815260040180806020018281038252601f8152602001807f546865206275796572206973206e6f7420706179696e6720656e6f7567682e0081525060200191505060405180910390fd5b6000809054906101000a900473ffffffffffffffffffffffffffffffffffffffff1673ffffffffffffffffffffffffffffffffffffffff166323b872dd33306006546040518463ffffffff167c0100000000000000000000000000000000000000000000000000000000028152600401808473ffffffffffffffffffffffffffffffffffffffff1673ffffffffffffffffffffffffffffffffffffffff1681526020018373ffffffffffffffffffffffffffffffffffffffff1673ffffffffffffffffffffffffffffffffffffffff1681526020018281526020019350505050602060405180830381600087803b158015610b7257600080fd5b505af1158015610b86573d6000803e3d6000fd5b505050506040513d6020811015610b9c57600080fd5b810190808051906020019092919050505050600160009054906101000a900473ffffffffffffffffffffffffffffffffffffffff1673ffffffffffffffffffffffffffffffffffffffff166323b872dd33306007546040518463ffffffff167c0100000000000000000000000000000000000000000000000000000000028152600401808473ffffffffffffffffffffffffffffffffffffffff1673ffffffffffffffffffffffffffffffffffffffff1681526020018373ffffffffffffffffffffffffffffffffffffffff1673ffffffffffffffffffffffffffffffffffffffff1681526020018281526020019350505050602060405180830381600087803b158015610ca957600080fd5b505af1158015610cbd573d6000803e3d6000fd5b505050506040513d6020811015610cd357600080fd5b81019080805190602001909291905050505033600860006101000a81548173ffffffffffffffffffffffffffffffffffffffff021916908373ffffffffffffffffffffffffffffffffffffffff1602179055506002600860156101000a81548160ff02191690836004811115610d4557fe5b0217905550565b3373ffffffffffffffffffffffffffffffffffffffff16600560009054906101000a900473ffffffffffffffffffffffffffffffffffffffff1673ffffffffffffffffffffffffffffffffffffffff16141515610e37576040517f08c379a00000000000000000000000000000000000000000000000000000000081526004018080602001828103825260278152602001807f4f6e6c79207468652073656c6c65722063616e2063616c6c207468697320667581526020017f6e6374696f6e2e0000000000000000000000000000000000000000000000000081525060400191505060405180910390fd5b60006004811115610e4457fe5b600860159054906101000a900460ff166004811115610e5f57fe5b141515610efa576040517f08c379a00000000000000000000000000000000000000000000000000000000081526004018080602001828103825260268152602001807f54686520636f6e7472616374206973206e6f7420696e2074686520496e69742081526020017f73746174652e000000000000000000000000000000000000000000000000000081525060400191505060405180910390fd5b3073ffffffffffffffffffffffffffffffffffffffff16600260009054906101000a900473ffffffffffffffffffffffffffffffffffffffff1673ffffffffffffffffffffffffffffffffffffffff1663081812fc6003546040518263ffffffff167c010000000000000000000000000000000000000000000000000000000002815260040180828152602001915050602060405180830381600087803b158015610fa457600080fd5b505af1158015610fb8573d6000803e3d6000fd5b505050506040513d6020811015610fce57600080fd5b810190808051906020019092919050505073ffffffffffffffffffffffffffffffffffffffff161415156110b6576040517f08c379a00000000000000000000000000000000000000000000000000000000081526004018080602001828103825260418152602001807f54686520636f6e747261637420686173206e6f74206265656e20617070726f7681526020017f656420746f207472616e7366657220746865204553504d37323120746f6b656e81526020017f2e0000000000000000000000000000000000000000000000000000000000000081525060600191505060405180910390fd5b600260009054906101000a900473ffffffffffffffffffffffffffffffffffffffff1673ffffffffffffffffffffffffffffffffffffffff166323b872dd600560009054906101000a900473ffffffffffffffffffffffffffffffffffffffff16306003546040518463ffffffff167c0100000000000000000000000000000000000000000000000000000000028152600401808473ffffffffffffffffffffffffffffffffffffffff1673ffffffffffffffffffffffffffffffffffffffff1681526020018373ffffffffffffffffffffffffffffffffffffffff1673ffffffffffffffffffffffffffffffffffffffff1681526020018281526020019350505050600060405180830381600087803b1580156111d357600080fd5b505af11580156111e7573d6000803e3d6000fd5b505050506001600860156101000a81548160ff0219169083600481111561120a57fe5b0217905550565b6003600481111561121e57fe5b600860159054906101000a900460ff16600481111561123957fe5b141515156112d5576040517f08c379a00000000000000000000000000000000000000000000000000000000081526004018080602001828103825260278152602001807f412066696e616c697a656420636f6e74726163742063616e6e6f74206265206381526020017f616e63656c65640000000000000000000000000000000000000000000000000081525060400191505060405180910390fd5b600560009054906101000a900473ffffffffffffffffffffffffffffffffffffffff1673ffffffffffffffffffffffffffffffffffffffff163373ffffffffffffffffffffffffffffffffffffffff16148061137e5750600860009054906101000a900473ffffffffffffffffffffffffffffffffffffffff1673ffffffffffffffffffffffffffffffffffffffff163373ffffffffffffffffffffffffffffffffffffffff16145b1515611418576040517f08c379a00000000000000000000000000000000000000000000000000000000081526004018080602001828103825260238152602001807f4f6e6c7920746865206275796572206f722073656c6c65722063616e2063616e81526020017f63656c000000000000000000000000000000000000000000000000000000000081525060400191505060405180910390fd5b6002600481111561142557fe5b600860159054906101000a900460ff16600481111561144057fe5b14156117c9576000809054906101000a900473ffffffffffffffffffffffffffffffffffffffff1673ffffffffffffffffffffffffffffffffffffffff1663a9059cbb600860009054906101000a900473ffffffffffffffffffffffffffffffffffffffff166006546040518363ffffffff167c0100000000000000000000000000000000000000000000000000000000028152600401808373ffffffffffffffffffffffffffffffffffffffff1673ffffffffffffffffffffffffffffffffffffffff16815260200182815260200192505050602060405180830381600087803b15801561152e57600080fd5b505af1158015611542573d6000803e3d6000fd5b505050506040513d602081101561155857600080fd5b810190808051906020019092919050505050600160009054906101000a900473ffffffffffffffffffffffffffffffffffffffff1673ffffffffffffffffffffffffffffffffffffffff1663a9059cbb600860009054906101000a900473ffffffffffffffffffffffffffffffffffffffff166007546040518363ffffffff167c0100000000000000000000000000000000000000000000000000000000028152600401808373ffffffffffffffffffffffffffffffffffffffff1673ffffffffffffffffffffffffffffffffffffffff16815260200182815260200192505050602060405180830381600087803b15801561165357600080fd5b505af1158015611667573d6000803e3d6000fd5b505050506040513d602081101561167d57600080fd5b810190808051906020019092919050505050600260009054906101000a900473ffffffffffffffffffffffffffffffffffffffff1673ffffffffffffffffffffffffffffffffffffffff166323b872dd30600560009054906101000a900473ffffffffffffffffffffffffffffffffffffffff166003546040518463ffffffff167c0100000000000000000000000000000000000000000000000000000000028152600401808473ffffffffffffffffffffffffffffffffffffffff1673ffffffffffffffffffffffffffffffffffffffff1681526020018373ffffffffffffffffffffffffffffffffffffffff1673ffffffffffffffffffffffffffffffffffffffff1681526020018281526020019350505050600060405180830381600087803b1580156117ac57600080fd5b505af11580156117c0573d6000803e3d6000fd5b5050505061192e565b600160048111156117d657fe5b600860159054906101000a900460ff1660048111156117f157fe5b141561192d57600260009054906101000a900473ffffffffffffffffffffffffffffffffffffffff1673ffffffffffffffffffffffffffffffffffffffff166323b872dd30600560009054906101000a900473ffffffffffffffffffffffffffffffffffffffff166003546040518463ffffffff167c0100000000000000000000000000000000000000000000000000000000028152600401808473ffffffffffffffffffffffffffffffffffffffff1673ffffffffffffffffffffffffffffffffffffffff1681526020018373ffffffffffffffffffffffffffffffffffffffff1673ffffffffffffffffffffffffffffffffffffffff1681526020018281526020019350505050600060405180830381600087803b15801561191457600080fd5b505af1158015611928573d6000803e3d6000fd5b505050505b5b6004600860156101000a81548160ff0219169083600481111561194d57fe5b02179055505600a165627a7a72305820036afc10d283287625d9db5ce56c3ad5bc2ab7b655ded58c2477c1206e338c370029",
  "source": "pragma solidity ^0.4.24;\n\nimport \"./tokens/ESPM20.sol\";\nimport \"./tokens/ESPM20Reward.sol\";\nimport \"./tokens/espm721.sol\";\n\ncontract ESPMEscrow {\n\n  ESPM20 espm20;\n  ESPM20Reward espm20Reward;\n  ESPM721 espm721;\n\n  uint256 tokenId;\n  uint256 tokenPrice;\n  address seller;\n  bool sellerSettle = false;\n\n  uint256 tokenAmount;\n  uint256 rewardAmount;\n  address buyer;\n  bool buyerSettle = false;\n\n  enum EscrowState { Init, Approved721, Ready, Finalized, Canceled }\n  EscrowState state;\n\n  /*\n  * The constructor that initializes the escrow contract. The seller sells a\n  * ESPM721 token in exchange for ESPM20 and/or ESPM20 Reward tokens. The contract\n  * creator must be the owner of the ESPM721 token.\n  * @param ESPM20Addr The address of the ESPM20 token contract\n  * @param ESPM20RewardAddr The address of the ESPM20Reward token contract\n  * @param ESPM721Addr The address of the ESPM721 token contract\n  * @param _tokenId The token id of the ESPM721 token being sold\n  * @param _tokenPrice The price at which the ESPM721 token would be sold\n  */\n  constructor(address ESPM20Addr, address ESPM20RewardAddr, address ESPM721Addr, uint256 _tokenId, uint256 _tokenPrice) public {\n    espm20 = ESPM20(ESPM20Addr); // Ideally this value will be hardcoded.\n    espm20Reward = ESPM20Reward(ESPM20RewardAddr); // Ideally this value will be hardcoded.\n    espm721 = ESPM721(ESPM721Addr); // Ideally this value will be hardcoded.\n\n    tokenId = _tokenId; // The ESPM721 token that's being sold\n\n    seller = espm721.ownerOf(_tokenId); // Get the ESPM721 token seller\n    require(seller == msg.sender, \"The seller is not the contract creator.\");\n\n    tokenPrice = _tokenPrice; // The price of the ESPM721 token\n\n    state = EscrowState.Init; // Set the state of the Escrow to init\n  }\n\n  /*\n  * Checks that the seller has approved the escrow contract to transfer its ESPM721 token.\n  * Sends the tokens to the contract.\n  */\n  function check721Approved() public {\n    require(seller == msg.sender, \"Only the seller can call this function.\");\n    require(state == EscrowState.Init, \"The contract is not in the Init state.\");\n    require(espm721.getApproved(tokenId) == address(this), \"The contract has not been approved to transfer the ESPM721 token.\");\n\n    espm721.transferFrom(seller, address(this), tokenId);\n\n    state = EscrowState.Approved721; // Set the state of the Escrow to init\n  }\n\n  /*\n  * Checks that the buyer has approved the escrow contract to transfer its ESPM20/ESPM20Reward token.\n  * Sends the tokens to the contract.\n  */\n  function check20Approved() public {\n    require(state == EscrowState.Approved721, \"The contract is not in the Approved721 state.\");\n\n    tokenAmount = espm20.allowance(msg.sender, address(this));\n    rewardAmount = espm20Reward.allowance(msg.sender, address(this));\n\n    require(tokenAmount + rewardAmount >= tokenPrice, \"The buyer is not paying enough.\");\n\n    espm20.transferFrom(msg.sender, address(this), tokenAmount); // Transfers ESPM20 tokens from the buyer to the seller\n    espm20Reward.transferFrom(msg.sender, address(this), rewardAmount); // Transfers ESPM20Reward tokens from the buyer to the seller\n\n    buyer = msg.sender;\n    state = EscrowState.Ready; // Set the state of the Escrow to init\n  }\n\n  /*\n  * Settles the escrow.\n  * Both the seller and the buyer need to agree to settle before the tokens can be sent.\n  */\n  function settle() public {\n    require(state == EscrowState.Ready, \"The contract is not in the Ready state.\");\n\n    if (msg.sender == seller && sellerSettle == false) {\n      sellerSettle = true;\n    }\n    if (msg.sender == buyer && buyerSettle == false) {\n      buyerSettle = true;\n    }\n    if (sellerSettle && buyerSettle) {\n\n      espm20.transfer(seller, tokenAmount); // Transfers ESPM20 tokens from the escrow to the seller\n      espm20Reward.transfer(seller, rewardAmount); // Transfers ESPM20Reward tokens from the escrow to the seller\n      espm721.transferFrom(address(this), buyer, tokenId); // Transfers the ESPM721 token from the escrow to the buyer\n\n      state = EscrowState.Finalized;\n    }\n  }\n\n  /*\n  * Either the seller or buyer can unilatierally cancel the escrow.\n  * Both the seller and the buyer are refunded their tokens\n  */\n  function cancel() public {\n    require(state != EscrowState.Finalized, \"A finalized contract cannot be canceled\");\n    require(msg.sender == seller || msg.sender == buyer, \"Only the buyer or seller can cancel\");\n\n    if (state == EscrowState.Ready) {\n      espm20.transfer(buyer, tokenAmount); // Transfers ESPM20 tokens from the escrow to the buyer\n      espm20Reward.transfer(buyer, rewardAmount); // Transfers ESPM20Reward tokens from the escrow to the buyer\n      espm721.transferFrom(address(this), seller, tokenId); // Transfers the ESPM721 token from the escrow to the seller\n    }\n    else if (state == EscrowState.Approved721) {\n      espm721.transferFrom(address(this), seller, tokenId); // Transfers the ESPM721 token from the escrow to the seller\n    }\n\n    state = EscrowState.Canceled;\n  }\n\n  function getState() public view returns (uint256){\n    return uint256(state);\n  }\n\n}\n",
  "sourcePath": "/Users/erichou/cs/autocomm/espm/blockchain/contracts/ESPMEscrow.sol",
  "compiler": {
    "name": "solc",
    "version": "0.4.24+commit.e67f0147.Emscripten.clang"
  },
  "schemaVersion": "2.0.1",
  "updatedAt": "2018-12-02T21:16:33.910Z"
}